:1000000004308A00A62C0000FF00030E8301A1002B
:100010000A08A0008A010408A2007708A300780853
:10002000A4007908A5007A08A600831383128B1E0A
:100030001B280B192C28220884002308F700240809
:10004000F8002508F9002608FA0020088A00210E89
:100050008300FF0E7F0E09008A110A1237280A104A
:100060008A100A11820728340C34013406340A300D
:10007000A8070318A90A643081000B118A110A121B
:100080001B285039E539E937EE32A029D420522A0D
:100090000000D232F33A6C3A6132EF3900015C3041
:1000A000840083130008031963280130F800F70166
:1000B000F70B5828F80B57284A30F700F70B5E2843
:1000C0006128800B55280800620EF039F7000F30C8
:1000D000060577048600000006146E280610080046
:1000E0008610F03083168600831206150000061471
:1000F00000000608060E0F39E20006100000061484
:1001000000000608060E0F39E100061000308316C5
:1001100086008312620EF700F030F705770861045D
:10012000F8007808E100E11B71285F1C86105F1859
:1001300086140000061100000610600EE1000F306A
:10014000E1056108E200642060080F39E100E20087
:100150006420080000308316860083128610061182
:1001600006100F30DC004F200130C8004808033C67
:10017000031CC2280330E20064200530DC004F205D
:10018000C80AB6280230E2006420C8014808033CCF
:10019000031CD32848082F20C900DF014908E000CC
:1001A0007020C80AC6288A110A12D22C01305D02BA
:1001B000FC3E0318E928043EF1288030DE00E928DF
:1001C000C030DE00E9289430DE00E928D430DE00BB
:1001D000E92801305C02DE07DF015E08E0007020E4
:1001E00008000A108A100A118207DD28E028E32897
:1001F000E6285B080C3A03190429063A03190E296C
:10020000023A031915291A29DF010130E000702094
:100210000130A7000230DC004F202029A70A01305E
:10022000DC002708DD00D6202029DF011030E000A7
:10023000702020290130DF005B08E00070202029B9
:1002400008000B08C8008B13831603178C170C14B7
:100250000000000083120C087F390319682903137A
:10026000C90003170D080313CA0003170F0803136F
:10027000CB004908DB00F9204A0803178D0003135F
:100280004B0803178F0083168C170C140000000016
:1002900083120C0D0E0D7F39031968290313C90051
:1002A00003170D080313CA0003170F080313CB002D
:1002B0004908DB00F9204A0803178D0003134B0897
:1002C00003178F008D0A03198F0A031324290317BC
:1002D0000313C81B8B1708008E30F7004908F8007D
:1002E0004808F900FA01F808031D80297908F80088
:1002F000F9010830F702F808031D8029F701882961
:100300000310F81B8729F90DF80DF7038029F8135E
:100310008A110A12032D4C080319502AD8005008DC
:100320000319502AD802031C9A297F30D8070318D2
:10033000502AA0298130D802031C502A0319502AC0
:100340005808F700F801F901FA01D7014D08D60065
:10035000D6174E08D5004F08D4001930D8005308DE
:10036000D4020318C3290130D5020318C329D602C9
:100370000318C329D7020318C329D70AD60AD50AF6
:100380005308D407F5295208D5020318DE29013095
:10039000D6020318DE29D7020318DE29D70AD60AA7
:1003A0005208D5075308D407031CF529D50A031DA5
:1003B000F529D60A031DF529D70AF52951088038F1
:1003C000D6020318F4290130D7020318F429D70AFA
:1003D00051088038D6075208D507031CD229D60AFF
:1003E000031DD229D70AD2297A14D80BF829032A57
:1003F0000310D40DD50DD60DD70D0310FA0DF90D40
:10040000F80DD90DAF29591C0B2A0310F80CF90C63
:10041000FA0CD90C0E2AF7030319502AD91B372AD4
:100420000310D40DD50DD60DD70D5308D4020318E3
:10043000232A0130D5020318232AD6020318232ABF
:10044000D702031C462A5208D50203182E2A01306F
:10045000D60203182E2AD702031C462A51088038D8
:10046000D6020318372A0130D702031C462AFA0A9B
:10047000031D462AF90A031D462AF80A031D462AC7
:10048000F70A0319502AF80CF90CFA0C4D08D80099
:100490005108D806D81F4E2AF817542AF813542AA0
:1004A000F701F801F901FA018A110A12192D4D0814
:1004B000D4005108D406D41F622A03110310CD1BA7
:1004C0000314952A4D08D4005008D5004C08D502D5
:1004D0000319702AD41F952A0308013A8300952A2C
:1004E0005108D5004D08D50203197C2AD41F952A3E
:1004F0000308013A8300952A5208D5004E08D50218
:100500000319882AD41F952A0308013A8300952AE3
:100510005308D5004F08D5020319942AD41F952AF1
:100520000308013A8300952A0310080083189B2AC8
:10053000633084008313F701F801F901FA01E30144
:10054000E401E501E6016208610460045F04031947
:10055000D92A2030E7000310DB0DDC0DDD0DDE0DA8
:10056000E30DE40DE50DE60D62086602031DC22AE7
:1005700061086502031DC22A60086402031DC22AC5
:100580005F086302031CD32A5F08E3026008031CB0
:10059000600FE4026108031C610FE5026208031C9E
:1005A000620FE6020314F70DF80DF90DFA0DE70BD3
:1005B000AB2A63088000840A64088000840A650806
:1005C0008000840A6608800008000408D3005208EE
:1005D000D5000319772B5108DE005008DD004F08C5
:1005E000DC004E08DB00E201E1012030E000823057
:1005F000DF005B080319692BE3005F080319692B0F
:10060000E30703180A2B7F30E302031C692B03194D
:10061000692B0E2B8130E3070318692B6308F70061
:10062000F801F901FA015C08E700E7175D08E60048
:100630005E08E5001830E300E401651C372B620812
:10064000FA07031C292BF90A031D292BF80A0319A1
:10065000E4176108F907031C302BF80A0319E417A3
:100660006008DD00DD175D08F8070318E417E40DE6
:10067000F80CF90CFA0CE70CE60CE50C0310E30B94
:100680001C2B0130F7070318692BF81B4E2BE70DC5
:10069000FA0DF90DF80DF7030319692BE71F5F2B0E
:1006A000FA0A031D5F2BF90A031D5F2BF80A031DCD
:1006B0005F2BF80CF90CFA0CF70A0319692B5C088C
:1006C000E4006008E406E41F672BF8176D2BF813AD
:1006D0006D2BF701F801F901FA017A08D1007908C8
:1006E000D0007808CF007708CE00D50BEB2A510850
:1006F000DE005008DD004F08DC004E08DB005B0820
:10070000B63CDB00FA015C08DF00DC170310DC0CF0
:10071000DD0CDE0CFA0CF90CF80CF70CDB0B862B5D
:10072000DF1F9D2BF709F809F909FA09F70A0319E0
:10073000F80A0319F90A0319FA0A7A08D1007908A4
:10074000D0007808CF007708CE00D11FB42BD30398
:10075000D316CE09CF09D009D109CE0A0319CF0A81
:100760000319D00A0319D10A3B30DA009A30D900B4
:10077000CA30D800D7010A30D50052080319D30A6D
:1007800083144E30840083135108DE005008DD00CE
:100790004F08DC004E08DB005A08E2005908E1006F
:1007A0005808E0005708DF0096227808F708031D74
:1007B000EC2B520A55020319EC2B53080319EE2BAC
:1007C0000F3955020319E62B03181E2CD31B1E2CC0
:1007D000531BEE2B20301A2C2030D305D31EFC2BBC
:1007E000D3125208031DD3037708D3002D30DB004A
:1007F000F9205308F700D30152085502031D0A2CB3
:100800007708D3002E30DB00F9205308F7002030A2
:10081000D30500303030D31E1A2CD3125208031DDA
:10082000D3037708D3002D30DB00F9205308F700FD
:10083000D3013030F7077708DB00F92083105A081E
:10084000DE005908DD005808DC005708DB00E20133
:10085000E101E0010A30DF0096227A08DA00790827
:10086000D9007808D8007708D700D50BC02B08002E
:100870005508F80154020318402C5408F7004C2C7A
:10088000F7010830D600D40DF70D5508770203188C
:10089000F700F80DD60B432C080020304F1E3030E7
:1008A000D0004E08F700CE1F5D2CF709F70A770835
:1008B000CE002D30D000CF174F144E08D400643036
:1008C000D50038247708CE0030307807D1004E08A4
:1008D000D4000A30D500382430307707D3003030C8
:1008E0007807D2005008F7003030510203197C2CF1
:1008F000CF14CF1B4F15902C5008D1002030D000C2
:10090000303052020319882C4F14CF1BCF14902C77
:10091000031D4F14031D902C5108D2002030D1002C
:100920004F19972CCF189A2C4F189D2CA02C50089B
:10093000DB00F9205108DB00F9205208DB00F92028
:100940005308DB00F9208A110A12182E8401831340
:100950001F308305A901A801831603170908C039B0
:10096000890003131F129F1200300317880083129F
:100970008701880189010313AB01AD01AE01AF010D
:10098000B001B101B201B301B401B501B601B701C3
:10099000B801B901BA01BB01BC01BD01BE01BF0173
:1009A000C001AA28FF30831688000108C039053825
:1009B000810083128B16413003178D0000308F00A9
:1009C00003132121831688178312881FE22C0C3011
:1009D000DB00F920C0308B04643081002B08043C1C
:1009E0000319C92D28084102031DFA2C29084202C7
:1009F0000319EE2C2908C2002808C1002908C900E3
:100A00002808C8006C297708C8007808C900790848
:100A1000CA007A08CB00CF007908CE007808CD0054
:100A20007708CC00D301D2017A30D1008830D000D1
:100A30008B297A08C6007908C5007808C4007708B1
:100A4000C300AC012C08033C031C702D2C0DF700D7
:100A5000F70DFC30F7057708313E8400831300085A
:100A6000C800840A0008C900840A0008CA00840A71
:100A70000008CB00CF004A08CE004908CD00480846
:100A8000CC00D301D201D101D0015722031D6E2D1C
:100A900001302C07C8000130DC004808DD00D620FA
:100AA00041302C07C800DB00F9202030DB00F920A2
:100AB0003D30DB00F9202030DB00F9208930840054
:100AC0004608D1004508D0004408CF004308CE00B6
:100AD0000230D200E5220A30DB00F920AC0A222DD8
:100AE000FF308316880083120808AA00AC012C0886
:100AF000033C031CC82D0130F7002C08F800031933
:100B0000852D0310F70DF80B812D77082A050319A1
:100B1000C62D2C0DF700F70DFC30F7057708313E98
:100B2000840083130008C800840A0008C900840AEE
:100B30000008CA00840A0008CB00CF004A08CE0093
:100B40004908CD004808CC00D301D201D101D00121
:100B50005722031DC62D2B08AB0A2D3E840083139C
:100B60002C0880002C0DF700F70DFC30F7057708F6
:100B7000313E8400831343088000840A44088000C7
:100B8000840A45088000840A46088000AC0A772D54
:100B9000EE2C0B138B138B1BCA2D0C30DB00F920B2
:100BA0000330DC000230DD00D620493003178D0011
:100BB00000308F00031321210230C800FA30DC001E
:100BC0004F20C80BDE2D0C30DB00F920AC012C08C7
:100BD000033C031C3C2E2D302C078400831300089B
:100BE000C70001302C07C8000130DC004808DD00D8
:100BF000D62001302C07C80041304707C900470DF7
:100C0000F700F70DFC30F7057708313E84008313B9
:100C10000008CA00840A0008CB00840A0008CC003F
:100C2000840A0008CD004808CE001830CF004D2CB3
:100C30002E30DB00F9202D30DB00F9202030DB00E6
:100C4000F9204908DB00F9202030DB00F9203D3095
:100C5000DB00F9202030DB00F920893084004D08CA
:100C6000D1004C08D0004B08CF004A08CE0002301B
:0A0C7000D200E522AC0AE72D630074
:04400E00E22CFF3F62
:00000001FF
;PIC16F887
;CRC=4711  CREATED="22-ene.-17 18:32"
