:1000000005308A003D2D0000FF00030E8301A10092
:100010000A08A0008A010408A2007708A300780853
:10002000A4007908A5007A08A600831383128B1E0A
:100030001B280B192C28220884002308F700240809
:10004000F8002508F9002608FA0020088A00210E89
:100050008300FF0E7F0E09008A110A1237280A104A
:100060008A100A11820728340C34013406340A300D
:10007000A9070318AA0A643081000B118A110A1219
:100080001B285039E539E937EE32A029D420522A0D
:100090000000D232F33A6C3A6132EF390001B11EFE
:1000A0000A193D00A531A0163E1025173233000075
:1000B000623084008313000803196C280130F800B3
:1000C000F701F70B6128F80B60284A30F700F70BAF
:1000D00067286A28800B5E280800691871280612B4
:1000E00072280616831606128312E91879288612DA
:1000F0007A288616831686128312691981280613B8
:1001000082280617831606138312E9198928861395
:100110008A2886178316861300008312A8132808DE
:1001200083168700831287179528A813280883163B
:100130008700831287130800EA01A8132808831692
:1001400087008312871700008316061683126A1031
:10015000061A6A14831686168312EA10861AEA149F
:100160008316061783126A11061B6A1583168617F3
:100170008312EA11861BEA15A81328088316870044
:100180008312871300006A08F8000800A8122808E4
:100190008316870083128712281328088316870086
:1001A0008312071700009C207808E9009C2078083B
:1001B000E800690EF700F030F70577086804F800EA
:1001C0007808E800E81BCC28E6080319EE28A812F6
:1001D00028088316870083128716F428A812280897
:1001E00083168700831287120000281328088316BD
:1001F0008700831207130000A813280883168700BE
:1002000083128713670EE8000F30E8056808E900DD
:100210006D2067080F39E800E9006D200800013003
:10022000A700A812280883168700831287122813B4
:1002300028088316870083120713A813280883163B
:100240008700831287132330E2005820C801480832
:10025000023C031C33290330E9006D200530E20025
:100260005820C80A27290230E9006D20C801480833
:10027000033C031C442948082F20C900E601490813
:10028000E700C620C80A37298A110A12692D6308B7
:10029000013A03195529033A03195729013A031959
:1002A0005A29073A03195D296029E401622940307F
:1002B000E40062291030E40062295030E400622931
:1002C000E401622901306202E40764088038E50035
:1002D000E6016508E700C620080061080C3A03192A
:1002E0007829063A03198229023A031989298E29A5
:1002F000E6010130E700C6200130A7000230E2002D
:1003000058209429A70A0130E2002708E30047217A
:100310009429E6011030E700C62094290130E60058
:100320006108E700C620942908000B08C8008B1359
:10033000831603178C170C140000000083120C089E
:100340007F390319DC290313C90003170D080313B0
:10035000CA0003170F080313CB004908E1006D2101
:100360004A0803178D0003134B0803178F008316E9
:100370008C170C140000000083120C0D0E0D7F3939
:100380000319DC290313C90003170D080313CA005E
:1003900003170F080313CB004908E1006D214A0839
:1003A00003178D0003134B0803178F008D0A0319E1
:1003B0008F0A0313982903170313C81B8B17080010
:1003C0008E30F7004908F8004808F900FA01F808EB
:1003D000031DF4297908F800F9010830F702F8083C
:1003E000031DF429F701FC290310F81BFB29F90D63
:1003F000F80DF703F429F8138A110A129A2D4C0804
:100400000319C42AD80050080319C42AD802031CAF
:100410000E2A7F30D8070318C42A142A8130D80244
:10042000031CC42A0319C42A5808F700F801F9016B
:10043000FA01D7014D08D600D6174E08D5004F084F
:10044000D4001930D8005308D4020318372A0130D9
:10045000D5020318372AD6020318372AD702031801
:10046000372AD70AD60AD50A5308D407692A520868
:10047000D5020318522A0130D6020318522AD70295
:100480000318522AD70AD60A5208D5075308D407A8
:10049000031C692AD50A031D692AD60A031D692A85
:1004A000D70A692A51088038D6020318682A013011
:1004B000D7020318682AD70A51088038D60752088D
:1004C000D507031C462AD60A031D462AD70A462A00
:1004D0007A14D80B6C2A772A0310D40DD50DD60DBB
:1004E000D70D0310FA0DF90DF80DD90D232A591C5B
:1004F0007F2A0310F80CF90CFA0CD90C822AF703A6
:100500000319C42AD91BAB2A0310D40DD50DD60D5F
:10051000D70D5308D4020318972A0130D5020318C7
:10052000972AD6020318972AD702031CBA2A520820
:10053000D5020318A22A0130D6020318A22AD70234
:10054000031CBA2A51088038D6020318AB2A01309E
:10055000D702031CBA2AFA0A031DBA2AF90A031D94
:10056000BA2AF80A031DBA2AF70A0319C42AF80C92
:10057000F90CFA0C4D08D8005108D806D81FC22A29
:10058000F817C82AF813C82AF701F801F901FA0187
:100590008A110A12B02D4D08D4005108D406D41F78
:1005A000D62A03110310CD1B0314092B4D08D400C8
:1005B0005008D5004C08D5020319E42AD41F092B92
:1005C0000308013A8300092B5108D5004D08D502D4
:1005D0000319F02AD41F092B0308013A8300092BC1
:1005E0005208D5004E08D5020319FC2AD41F092B46
:1005F0000308013A8300092B5308D5004F08D502A0
:100600000319082BD41F092B0308013A8300092B77
:100610000310080083180F2B693084008313F7013F
:10062000F801F901FA01E901EA01EB01EC016808BE
:1006300067046604650403194D2B2030ED00031098
:10064000E10DE20DE30DE40DE90DEA0DEB0DEC0D0E
:1006500068086C02031D362B67086B02031D362BDE
:1006600066086A02031D362B65086902031C472BC6
:100670006508E9026608031C660FEA026708031CA6
:10068000670FEB026808031C680FEC020314F70DF8
:10069000F80DF90DFA0DED0B1F2B69088000840A87
:1006A0006A088000840A6B088000840A6C08800055
:1006B00008000408D9005808DB000319EB2B570881
:1006C000E4005608E3005508E2005408E100E801A0
:1006D000E7012030E6008230E50061080319DD2BD8
:1006E000E90065080319DD2BE90703187E2B7F302D
:1006F000E902031CDD2B0319DD2B822B8130E90776
:100700000318DD2B6908F700F801F901FA01620806
:10071000ED00ED176308EC006408EB001830E90009
:10072000EA016B1CAB2B6808FA07031C9D2BF90A26
:10073000031D9D2BF80A0319EA176708F907031C24
:10074000A42BF80A0319EA176608E300E317630805
:10075000F8070318EA17EA0DF80CF90CFA0CED0C7F
:10076000EC0CEB0C0310E90B902B0130F70703188E
:10077000DD2BF81BC22BED0DFA0DF90DF80DF7036B
:100780000319DD2BED1FD32BFA0A031DD32BF90A16
:10079000031DD32BF80A031DD32BF80CF90CFA0C0C
:1007A000F70A0319DD2B6208EA006608EA06EA1F69
:1007B000DB2BF817E12BF813E12BF701F801F90116
:1007C000FA017A08D7007908D6007808D5007708AA
:1007D000D400DB0B5F2B5708E4005608E3005508F4
:1007E000E2005408E1006108B63CE100FA01620849
:1007F000E500E2170310E20CE30CE40CFA0CF90C30
:10080000F80CF70CE10BFA2BE51F112CF709F8098E
:10081000F909FA09F70A0319F80A0319F90A031979
:10082000FA0A7A08D7007908D6007808D500770840
:10083000D400D71F282CD903D916D409D509D60935
:10084000D709D40A0319D50A0319D60A0319D70AF6
:100850003B30E0009A30DF00CA30DE00DD010A30B4
:10086000DB0058080319D90A831454308400831319
:100870005708E4005608E3005508E2005408E10078
:100880006008E8005F08E7005E08E6005D08E50034
:100890000A237808F708031D602C580A5B02031925
:1008A000602C59080319622C0F395B0203195A2C6A
:1008B0000318922CD91B922C591B622C20308E2CA1
:1008C0002030D905D91E702CD9125808031DD90320
:1008D0007708D9002D30E1006D215908F700D901C2
:1008E00058085B02031D7E2C7708D9002E30E100EA
:1008F0006D215908F7002030D90500303030D91E5D
:100900008E2CD9125808031DD9037708D9002D3031
:10091000E1006D215908F700D9013030F707770859
:10092000E1006D2183106008E4005F08E3005E08C9
:10093000E2005D08E100E801E701E6010A30E500B8
:100940000A237A08E0007908DF007808DE007708DB
:10095000DD00DB0B342C08004808E2004908E30006
:1009600047214A08E1006D212030E1006D213D3032
:10097000E1006D212030E1006D21893084004E08B6
:10098000D7004D08D6004C08D5004B08D4000230E3
:10099000D800592308004D08E2004E08E300472123
:1009A0004F08E1006D21533003178D0000308F0098
:1009B000031004300313D4000B08D5008B138316E7
:1009C00003178C170C140000000003180E2D83125F
:1009D0000C087F390313D60003170D080313D70043
:1009E00003170F080313D8005608E1006D215708BC
:1009F00003178D000313580803178F0083168C17F5
:100A00000C140000000083120313D40B082D0B2DCF
:100A1000831603170E2D2D2D8316031783120C0D2D
:100A20000E0D7F390313D60003170D080313D700EB
:100A300003170F080313D8005608E1006D2157086B
:100A400003178D000313580803178F008D0A03192D
:100A50008F0A03100313D40BDF2CD51B8B1789309F
:100A600084005308D7005208D6005108D50050081A
:100A7000D4000230D80059230800840183131F30AA
:100A80008305FF30A800831603170908C0398900C1
:100A900003131F129F12003003178800831287016F
:100AA000880189010313AB01AC01AD01AE01B001B6
:100AB000B101B201B301B401B501B601B701B8018A
:100AC000B901BA01BB01BC01BD01BE01BF01C0013A
:100AD0000F29FF30831686000108C03905388100D0
:100AE00083128B16413003178D0000308F000313E3
:100AF0009521831686178312861F792D0C30E1000D
:100B00006D21C0308B04643081003008043C03192F
:100B1000882E29084502031D912D2A084602031933
:100B2000852D2A08C6002908C5002A08C9002908F9
:100B3000C800E0297708C8007808C9007908CA0009
:100B40007A08CB00CF007908CE007808CD0077086E
:100B5000CC00D301D2017A30D1008830D000FF29F7
:100B60007A08C4007908C3007808C2007708C10079
:100B70003408CF003308CE003208CD003108CC0055
:100B8000D301D201D101D001CB22031DD52D0130DB
:100B9000C800C9004130CA004408CE004308CD0057
:100BA0004208CC004108CB00AC243808CF003708FD
:100BB000CE003608CD003508CC00D301D201D101DA
:100BC000D001CB22031DF32D0130C8000230C90033
:100BD0004230CA004408CE004308CD004208CC0091
:100BE0004108CB00AC243C08CF003B08CE003A08BB
:100BF000CD003908CC00D301D201D101D001CB22E4
:100C0000031D112E1130C8000130C9004330CA0045
:100C10004408CE004308CD004208CC004108CB0078
:100C2000AC244008CF003F08CE003E08CD003D0870
:100C3000CC00D301D201D101D001CB22031D2F2E34
:100C40001130C8000230C9004430CA004408CE0048
:100C50004308CD004208CC004108CB00AC24FF3053
:100C60008316860083120608AF00C7014708033CBD
:100C7000031C872E0130F7004708F8000319442EA3
:100C80000310F70DF80B402E77082F050319852E5A
:100C9000470DF700F70DFC30F7057708313E84006B
:100CA00083130008C800840A0008C900840A0008E9
:100CB000CA00840A0008CB00CF004A08CE004908C9
:100CC000CD004808CC00D301D201D101D001CB2204
:100CD000031D852E3008B00A2B3E8400831347087D
:100CE0008000470DF700F70DFC30F7057708313E1F
:100CF0008400831341088000840A42088000840A2B
:100D000043088000840A44088000C70A362E852DD7
:100D10000B138B138B1B892E0C30E1006D210330DC
:100D2000E2000230E3004721493003178D00003014
:100D30008F00031395210230C800FA30E2005820DA
:100D4000C80B9D2E0C30E1006D214F3003178D0034
:100D500000308F00031395211130E2000130E300D1
:100D600047213330E1006D213D30E1006D2111302C
:100D7000E2000230E30047213430E1006D213D30D4
:100D8000E1006D2141302B07C8002B0DF700F70D56
:100D9000FC30F7057708313E840083130008C90052
:100DA000840A0008CA00840A0008CB00840A0008EC
:100DB000CC000430CD000130CE004808CF004C08F4
:100DC000D3004B08D2004A08D1004908D000CB24F8
:100DD00041302C07C8002C0DF700F70DFC30F7054B
:100DE0007708313E840083130008C900840A000894
:100DF000CA00840A0008CB00840A0008CC00043032
:100E0000CD000230CE004808CF004C08D3004B087C
:100E1000D2004A08D1004908D000CB2441302D0728
:100E2000C8002D0DF700F70DFC30F7057708313EAF
:100E3000840083130008C900840A0008CA00840AD9
:100E40000008CB00840A0008CC001430CD0001302B
:100E5000CE004808CF004C08D3004B08D2004A0807
:100E6000D1004908D000CB2441302E07C8002E0DF8
:100E7000F700F70DFC30F7057708313E8400831347
:100E80000008C900840A0008CA00840A0008CB00D0
:100E9000840A0008CC001430CD000230CE0048088F
:100EA000CF004C08D3004B08D2004A08D1004908B3
:060EB000D000CB2463001A
:04400E00E22CFF3F62
:00000001FF
;PIC16F887
;CRC=3A60  CREATED="22-ene.-17 12:23"
