:1000000005308A00842D0000FF00030E8301A1004B
:100010000A08A0008A010408A2007708A300780853
:10002000A4007908A5007A08A600831383128B1D0B
:100030001B280B1830288B1E1F280B193328220869
:1000400084002308F7002408F8002508F900260892
:10005000FA0020088A00210E8300FF0E7F0E09009F
:100060008A110A1246288A110A123E280A108A109A
:100070000A11820728340C34013406340A30A807E8
:100080000318A90A0B118A110A121F28FF308316C0
:10009000860083120608F03AF700770EB9000F3099
:1000A000B905E4016408033C031C89280130F7000A
:1000B0006408F800031960280310F70DF80B5C289A
:1000C00077083905031987280310640D313E840031
:1000D0008313840A0008E60084030008E500E508AD
:1000E000031D8728E608031D87282C08AC0A2D3E2F
:1000F00084008313640880000310640D313E840083
:100100008313840A2B08800084032A088000E40AF1
:1001100052280B108A110A121F285039E539E93785
:10012000EE32A029D420522A0000D232F33A6C3A9F
:100130006132EF390001B11E0A193D00A531A01648
:100140003E10251732330000583084008313000816
:100150000319B8280130F800F701F70BAD28F80BA8
:10016000AC284A30F700F70BB328B628800BAA2832
:1001700008005F18BD280812BE280816831608124A
:100180008312DF18C5288812C6288816831688129D
:1001900083125F19CD280813CE2808178316081379
:1001A0008312DF19D5288813D62888178316881359
:1001B000000083128717A713270883168700E028FB
:1001C00083128713A713270883168700831208005A
:1001D000E0018316081600308312081A0130E0048B
:1001E0008316881600308312881A0130F700031036
:1001F000F70D7708E0048316081700308312081BF8
:100200000130F700F70DF70DFC30F7057708E00433
:100210008316881700308312881B0130F700F70D12
:10022000F70DF70DF830F7057708E0046008F800DF
:100230000800A7132708831687008312A712270830
:1002400083168700831227132708831687008312DB
:100250008712A71227088316870008168816081722
:1002600088178312071727132708831687000000B3
:1002700083128717A71327088316870000008312AD
:10028000E8207808DF008713A71327088316870064
:10029000000083128717A713270883168700000022
:1002A0008312E8207808DE008713A7132708831637
:1002B0008700081288120813881383125F0EF70054
:1002C000F030F70577085E04F8007808DE00DE1FDE
:1002D0006B2983162D29DC08031D702987127129CB
:1002E0008716A712270883168700000083120713BA
:1002F0002713270883168700000083128713A7138C
:1003000027088316870083125D0EDE000F30DE059E
:100310005E08DF00B9205D080F39DE00DF00B9207C
:100320000800831608128812081388138312A71373
:100330002708831687008312A712270883168700D1
:100340008312271327088316870083128712A712A8
:10035000270883168700831207132713270883169D
:10036000870083128713A7132708831687000F308F
:100370008312D800A4200130BE003E08033C031CB9
:10038000C9290330DF00B9200530D800A420BE0AF7
:10039000BD290230DF00B9200530D800A420BE01FD
:1003A0003E08033C031CDD293E083620BF00DC016B
:1003B0003F08DD001921BE0AD0298A110A12A82D92
:1003C000590BE329E6294030DA00E729DA01013048
:1003D0005802DA075A088038DB00DC015B08DD00D0
:1003E000192108005708073A0319002A0B3A031984
:1003F000052A063A03190D2A023A0319132A182A64
:100400000130D800D900E0211E2ADC010130DD00D6
:1004100019210230D800A4201E2A0130D800023051
:10042000D900E0211E2ADC011030DD0019211E2A2E
:100430000130DC005708DD0019211E2A08000B08D6
:10044000BE008B13831603178C170C1400000000DA
:1004500083120C087F390319662A0313BF000317A0
:100460000D080313C00003170F080313C1003F0852
:10047000D700F221400803178D000313410803172A
:100480008F0083168C170C140000000083120C0DD3
:100490000E0D7F390319662A0313BF0003170D08D9
:1004A0000313C00003170F080313C1003F08D70050
:1004B000F221400803178D000313410803178F0032
:1004C0008D0A03198F0A0313222A03170313BE1B75
:1004D0008B1708008E30F7004208F8004108F90039
:1004E000FA01F808031D7E2A7908F800F90108309E
:1004F000F702F808031D7E2AF701862A0310F81B6D
:10050000852AF90DF80DF7037E2AF8130800420832
:1005100003194C2BCE00460803194C2BCE02031CAA
:10052000962A7F30CE0703184C2B9C2A8130CE02AE
:10053000031C4C2B03194C2B4E08F700F801F90152
:10054000FA01CD014308CC00CC174408CB00450884
:10055000CA001930CE004908CA020318BF2A013068
:10056000CB020318BF2ACC020318BF2ACD020318FE
:10057000BF2ACD0ACC0ACB0A4908CA07F12A480883
:10058000CB020318DA2A0130CC020318DA2ACD0292
:100590000318DA2ACD0ACC0A4808CB074908CA074B
:1005A000031CF12ACB0A031DF12ACC0A031DF12AF0
:1005B000CD0AF12A47088038CC020318F02A01300E
:1005C000CD020318F02ACD0A47088038CC07480826
:1005D000CB07031CCE2ACC0A031DCE2ACD0ACE2A75
:1005E0007A14CE0BF42AFF2A0310CA0DCB0DCC0DC2
:1005F000CD0D0310FA0DF90DF80DCF0DAB2A4F1CE0
:10060000072B0310F80CF90CFA0CCF0C0A2BF7038C
:1006100003194C2BCF1B332B0310CA0DCB0DCC0D64
:10062000CD0D4908CA0203181F2B0130CB02031855
:100630001F2BCC0203181F2BCD02031C422B480892
:10064000CB0203182A2B0130CC0203182A2BCD022F
:10065000031C422B47088038CC020318332B01308F
:10066000CD02031C422BFA0A031D422BF90A031D7B
:10067000422BF80A031D422BF70A03194C2BF80CE6
:10068000F90CFA0C4308CE004708CE06CE1F4A2BC1
:10069000F817502BF813502BF701F801F901FA0164
:1006A00008008318562B5F3084008313F701F8018C
:1006B000F901FA01DF01E001E101E2015E085D04F8
:1006C0005C045B040319942B2030E3000310D70D66
:1006D000D80DD90DDA0DDF0DE00DE10DE20D5E084C
:1006E0006202031D7D2B5D086102031D7D2B5C08EA
:1006F0006002031D7D2B5B085F02031C8E2B5B08D1
:10070000DF025C08031C5C0FE0025D08031C5D0F48
:10071000E1025E08031C5E0FE2020314F70DF80D00
:10072000F90DFA0DE30B662B5F088000840A600860
:100730008000840A61088000840A62088000080042
:100740000408CF004E08D1000319322C4D08DA00FE
:100750004C08D9004B08D8004A08D700DE01DD015B
:100760002030DC008230DB0057080319242CDF0026
:100770005B080319242CDF070318C52B7F30DF0229
:10078000031C242C0319242CC92B8130DF070318E8
:10079000242C5F08F700F801F901FA015808E3007A
:1007A000E3175908E2005A08E1001830DF00E001C1
:1007B000611CF22B5E08FA07031CE42BF90A031DE7
:1007C000E42BF80A0319E0175D08F907031CEB2B6B
:1007D000F80A0319E0175C08D900D9175908F80777
:1007E0000318E017E00DF80CF90CFA0CE30CE20C1E
:1007F000E10C0310DF0BD72B0130F7070318242C73
:10080000F81B092CE30DFA0DF90DF80DF703031988
:10081000242CE31F1A2CFA0A031D1A2CF90A031DB3
:100820001A2CF80A031D1A2CF80CF90CFA0CF70A0A
:100830000319242C5808E0005C08E006E01F222C75
:10084000F817282CF813282CF701F801F901FA0100
:100850007A08CD007908CC007808CB007708CA0068
:10086000D10BA62B4D08DA004C08D9004B08D80054
:100870004A08D7005708B63CD700FA015808DB00F1
:10088000D8170310D80CD90CDA0CFA0CF90CF80CA8
:10089000F70CD70B412CDB1F582CF709F809F90985
:1008A000FA09F70A0319F80A0319F90A0319FA0AE7
:1008B0007A08CD007908CC007808CB007708CA0008
:1008C000CD1F6F2CCF03CF16CA09CB09CC09CD0998
:1008D000CA0A0319CB0A0319CC0A0319CD0A3B3003
:1008E000D6009A30D500CA30D400D3010A30D100E6
:1008F0004E080319CF0A83144A30840083134D082D
:10090000DA004C08D9004B08D8004A08D70056082E
:10091000DE005508DD005408DC005308DB005123DD
:100920007808F708031DA72C4E0A51020319A72CBB
:100930004F080319A92C0F3951020319A12C0318D0
:10094000D92CCF1BD92C4F1BA92C2030D52C2030D3
:10095000CF05CF1EB72CCF124E08031DCF0377084B
:10096000CF002D30D700F2214F08F700CF014E08FD
:100970005102031DC52C7708CF002E30D700F2217D
:100980004F08F7002030CF0500303030CF1ED52C77
:10099000CF124E08031DCF037708CF002D30D700AC
:1009A000F2214F08F700CF013030F7077708D70062
:1009B000F22183105608DA005508D9005408D800EF
:1009C0005308D700DE01DD01DC010A30DB005123D2
:1009D0007A08D6007908D5007808D4007708D300C3
:1009E000D10B7B2C08003E08D8003F08D900E0213D
:1009F0004008D700F2212030D700F2213D30D70047
:100A0000F2212030D700F221893084004408CD0043
:100A10004308CC004208CB004108CA000230CE0097
:100A2000A02308004308D8004408D900E021450865
:100A3000D700F2219F3003178D0000308F00031084
:100A400004300313CA000B08CB008B138316031763
:100A50008C170C14000000000318552D83120C088D
:100A60007F390313CC0003170D080313CD000317C0
:100A70000F080313CE004C08D700F2214D080317CE
:100A80008D0003134E0803178F0083168C170C1468
:100A90000000000083120313CA0B4F2D522D831642
:100AA0000317552D742D8316031783120C0D0E0D8D
:100AB0007F390313CC0003170D080313CD00031770
:100AC0000F080313CE004C08D700F2214D0803177E
:100AD0008D0003134E0803178F008D0A03198F0A28
:100AE00003100313CA0B262DCB1B8B1789308400F0
:100AF0004908CD004808CC004708CB004608CA008A
:100B00000230CE00A0230800840183131F30830528
:100B1000FF30A700AC01831603170908C03989000C
:100B200003131F129F1200300317880083128701DE
:100B3000880189010313AD01AE01AF01B001B1011C
:100B4000B201B301B401B501B601B701B8019129F1
:100B5000FF308316860083128B15F03083169604BF
:100B600001130108C0390538810083128B168D30BE
:100B700003178D0000308F0003131F228316061405
:100B800083120618BE2D0C30D700F221C0308B0422
:100B9000643081002C08043C0319532E28082A02D3
:100BA000031DD62D29082B020319CA2D2908AB00D5
:100BB0002808AA002908C2002808C1006A2277086C
:100BC000BE007808BF007908C0007A08C100C500DF
:100BD0007908C4007808C3007708C200C901C801B9
:100BE0007A30C7008830C60087227A08BD007908AD
:100BF000BC007808BB007708BA00B108031D112EAD
:100C0000B208031D112E0130BE00BF004130C000EC
:100C10003D08C4003C08C3003B08C2003A08C100BC
:100C2000F324B308031D262EB408031D262E01301D
:100C3000BE000230BF004230C0003D08C4003C0886
:100C4000C3003B08C2003A08C100F324B508031DE5
:100C50003B2EB608031D3B2E1130BE000130BF00F5
:100C60004330C0003D08C4003C08C3003B08C2003C
:100C70003A08C100F324B708031D502EB808031D1D
:100C8000502E1130BE000230BF004430C0003D087D
:100C9000C4003C08C3003B08C2003A08C100F3246A
:100CA00064308100CA2D0B138B138B1B542E0C3018
:100CB000D700F2210330D8000230D900E02195306E
:100CC00003178D0000308F0003131F220230BE0077
:100CD000FA30D800A420BE0B682E0C30D700F221C9
:100CE0009B3003178D0000308F0003131F2211303B
:100CF000D8000130D900E0213330D700F2213D3057
:100D0000D700F2211130D8000230D900E021343070
:100D1000D700F2213D30D700F22141302D07BE002F
:100D200003102D0D313E84008313840A0008C00097
:100D300084030008BF004008C2003F08C1006A22C7
:100D40007A08C5007908C4007808C3007708C20093
:100D5000C901C8017A30C7008830C60087227708E9
:100D6000BF007808C0007908C1007A08C2000430CA
:100D7000C3000130C4003E08C5007A08C9007908E4
:100D8000C8007808C7007708C600122541302E0732
:100D9000BE0003102E0D313E84008313840A000828
:100DA000C00084030008BF004008C2003F08C10023
:100DB0006A227A08C5007908C4007808C300770859
:100DC000C200C901C8017A30C7008830C600872236
:100DD0007708BF007808C0007908C1007A08C2000F
:100DE0000430C3000230C4003E08C5007A08C900C0
:100DF0007908C8007808C7007708C6001225413076
:100E00002F07BE0003102F0D313E84008313840A88
:100E10000008C00084030008BF004008C2003F086B
:100E2000C1006A227A08C5007908C4007808C300A6
:100E30007708C200C901C8017A30C7008830C600EF
:100E400087227708BF007808C0007908C1007A08B7
:100E5000C2001430C3000130C4003E08C5007A0847
:100E6000C9007908C8007808C7007708C6001225AD
:100E700041303007BE000310300D313E8400831333
:100E8000840A0008C00084030008BF004008C200B4
:100E90003F08C1006A227A08C5007908C4007808B2
:100EA000C3007708C200C901C8017A30C700883082
:100EB000C60087227708BF007808C0007908C10003
:100EC0007A08C2001430C3000230C4003E08C500D6
:100ED0007A08C9007908C8007808C7007708C600F2
:040EE0001225630074
:04400E00E22CFF3F62
:00000001FF
;PIC16F887
;CRC=D3D3  CREATED="22-ene.-17 11:03"
