:1000000000308A0036280000FF00030E8301A100A3
:100010000A08A0008A010408A2007708A300780853
:10002000A4007908A5007A08A600831383128B1E0A
:100030001B280B192C28220884002308F700240809
:10004000F8002508F9002608FA0020088A00210E89
:100050008300FF0E7F0E09008A110A122F288809DB
:10006000C33081000B118A110A121B2884018313EB
:100070001F308305831603170908C039890003134D
:100080001F129F1200300317880083128701880116
:100090008901003083160313880083128801C03061
:1000A0008B048B1683160108C03903388100C330D6
:0800B000831281005A2863004D
:04400E00E12FFF3F60
:00000001FF
;PIC16F887
;CRC=D917  CREATED="21-ene.-17 11:52"
